{
  "address": "0x91dCD7E847d366a3D664162751A807d60dc829B5",
  "abi": [
    {
      "inputs": [
        {
          "internalType": "address",
          "name": "_vrfCoordinator",
          "type": "address"
        },
        {
          "internalType": "address",
          "name": "_link",
          "type": "address"
        },
        {
          "internalType": "bytes32",
          "name": "_keyHash",
          "type": "bytes32"
        },
        {
          "internalType": "uint256",
          "name": "_fee",
          "type": "uint256"
        },
        {
          "internalType": "address",
          "name": "_keeperRegistryAddress",
          "type": "address"
        },
        {
          "internalType": "address",
          "name": "_breakInNFT",
          "type": "address"
        },
        {
          "internalType": "address",
          "name": "_socialLegoToken",
          "type": "address"
        }
      ],
      "stateMutability": "nonpayable",
      "type": "constructor"
    },
    {
      "anonymous": false,
      "inputs": [
        {
          "indexed": true,
          "internalType": "address",
          "name": "previousOwner",
          "type": "address"
        },
        {
          "indexed": true,
          "internalType": "address",
          "name": "newOwner",
          "type": "address"
        }
      ],
      "name": "OwnershipTransferred",
      "type": "event"
    },
    {
      "anonymous": false,
      "inputs": [
        {
          "indexed": false,
          "internalType": "bytes32",
          "name": "requestID",
          "type": "bytes32"
        },
        {
          "indexed": false,
          "internalType": "address",
          "name": "player",
          "type": "address"
        },
        {
          "indexed": false,
          "internalType": "uint256",
          "name": "code",
          "type": "uint256"
        }
      ],
      "name": "gameCode",
      "type": "event"
    },
    {
      "inputs": [
        {
          "internalType": "address",
          "name": "",
          "type": "address"
        }
      ],
      "name": "NFTCharacterDepositLedger",
      "outputs": [
        {
          "internalType": "uint256",
          "name": "NFTID",
          "type": "uint256"
        },
        {
          "internalType": "bool",
          "name": "isDeposited",
          "type": "bool"
        },
        {
          "internalType": "bool",
          "name": "arrested",
          "type": "bool"
        },
        {
          "internalType": "uint256",
          "name": "freetoPlayAgain",
          "type": "uint256"
        },
        {
          "internalType": "bool",
          "name": "playingPVP",
          "type": "bool"
        },
        {
          "internalType": "uint256",
          "name": "canStopPlayingPVP",
          "type": "uint256"
        },
        {
          "internalType": "uint256",
          "name": "lootingTimeout",
          "type": "uint256"
        },
        {
          "internalType": "uint256",
          "name": "health",
          "type": "uint256"
        },
        {
          "internalType": "uint256",
          "name": "agility",
          "type": "uint256"
        },
        {
          "internalType": "uint256",
          "name": "strength",
          "type": "uint256"
        },
        {
          "internalType": "uint256",
          "name": "sneak",
          "type": "uint256"
        },
        {
          "internalType": "uint256",
          "name": "charm",
          "type": "uint256"
        }
      ],
      "stateMutability": "view",
      "type": "function"
    },
    {
      "inputs": [
        {
          "internalType": "string",
          "name": "name",
          "type": "string"
        },
        {
          "internalType": "uint16",
          "name": "riskBaseDifficulty",
          "type": "uint16"
        },
        {
          "internalType": "uint256",
          "name": "payoutAmountBase",
          "type": "uint256"
        }
      ],
      "name": "addScenario",
      "outputs": [],
      "stateMutability": "nonpayable",
      "type": "function"
    },
    {
      "inputs": [
        {
          "internalType": "uint256",
          "name": "newCheckInTimeInterval",
          "type": "uint256"
        }
      ],
      "name": "changeCheckInTime",
      "outputs": [],
      "stateMutability": "nonpayable",
      "type": "function"
    },
    {
      "inputs": [
        {
          "internalType": "uint256",
          "name": "newHospitalBill",
          "type": "uint256"
        }
      ],
      "name": "changeHospitalBill",
      "outputs": [],
      "stateMutability": "nonpayable",
      "type": "function"
    },
    {
      "inputs": [
        {
          "internalType": "address",
          "name": "newInheritor",
          "type": "address"
        }
      ],
      "name": "changeInheritance",
      "outputs": [],
      "stateMutability": "nonpayable",
      "type": "function"
    },
    {
      "inputs": [],
      "name": "checkInTimeInterval",
      "outputs": [
        {
          "internalType": "uint256",
          "name": "",
          "type": "uint256"
        }
      ],
      "stateMutability": "view",
      "type": "function"
    },
    {
      "inputs": [
        {
          "internalType": "bytes",
          "name": "",
          "type": "bytes"
        }
      ],
      "name": "checkUpkeep",
      "outputs": [
        {
          "internalType": "bool",
          "name": "upkeepNeeded",
          "type": "bool"
        },
        {
          "internalType": "bytes",
          "name": "",
          "type": "bytes"
        }
      ],
      "stateMutability": "view",
      "type": "function"
    },
    {
      "inputs": [
        {
          "internalType": "uint256",
          "name": "amountToDeposit",
          "type": "uint256"
        }
      ],
      "name": "depositJewels",
      "outputs": [],
      "stateMutability": "nonpayable",
      "type": "function"
    },
    {
      "inputs": [
        {
          "internalType": "uint256",
          "name": "NFTID",
          "type": "uint256"
        }
      ],
      "name": "depositNFT",
      "outputs": [],
      "stateMutability": "nonpayable",
      "type": "function"
    },
    {
      "inputs": [
        {
          "internalType": "uint256",
          "name": "",
          "type": "uint256"
        }
      ],
      "name": "gameScenarios",
      "outputs": [
        {
          "internalType": "string",
          "name": "name",
          "type": "string"
        },
        {
          "internalType": "uint256",
          "name": "riskBaseDifficulty",
          "type": "uint256"
        },
        {
          "internalType": "uint256",
          "name": "payoutAmountBase",
          "type": "uint256"
        }
      ],
      "stateMutability": "view",
      "type": "function"
    },
    {
      "inputs": [],
      "name": "hospitalVisit",
      "outputs": [],
      "stateMutability": "nonpayable",
      "type": "function"
    },
    {
      "inputs": [
        {
          "internalType": "address",
          "name": "",
          "type": "address"
        }
      ],
      "name": "jewelDepositLedger",
      "outputs": [
        {
          "internalType": "uint256",
          "name": "",
          "type": "uint256"
        }
      ],
      "stateMutability": "view",
      "type": "function"
    },
    {
      "inputs": [],
      "name": "lastCheckIn",
      "outputs": [
        {
          "internalType": "uint256",
          "name": "",
          "type": "uint256"
        }
      ],
      "stateMutability": "view",
      "type": "function"
    },
    {
      "inputs": [
        {
          "internalType": "uint256",
          "name": "scenarioNumber",
          "type": "uint256"
        },
        {
          "internalType": "string",
          "name": "name",
          "type": "string"
        },
        {
          "internalType": "uint16",
          "name": "riskBaseDifficulty",
          "type": "uint16"
        },
        {
          "internalType": "uint16",
          "name": "payoutAmountBase",
          "type": "uint16"
        }
      ],
      "name": "modifyScenario",
      "outputs": [],
      "stateMutability": "nonpayable",
      "type": "function"
    },
    {
      "inputs": [],
      "name": "nextOwner",
      "outputs": [
        {
          "internalType": "address",
          "name": "",
          "type": "address"
        }
      ],
      "stateMutability": "view",
      "type": "function"
    },
    {
      "inputs": [],
      "name": "owner",
      "outputs": [
        {
          "internalType": "address",
          "name": "",
          "type": "address"
        }
      ],
      "stateMutability": "view",
      "type": "function"
    },
    {
      "inputs": [],
      "name": "ownerCheckIn",
      "outputs": [],
      "stateMutability": "nonpayable",
      "type": "function"
    },
    {
      "inputs": [
        {
          "internalType": "bytes",
          "name": "",
          "type": "bytes"
        }
      ],
      "name": "performUpkeep",
      "outputs": [],
      "stateMutability": "nonpayable",
      "type": "function"
    },
    {
      "inputs": [
        {
          "internalType": "uint256",
          "name": "breakInStyle",
          "type": "uint256"
        },
        {
          "internalType": "address",
          "name": "targetPlayer",
          "type": "address"
        }
      ],
      "name": "playBreakOut",
      "outputs": [
        {
          "internalType": "bytes32",
          "name": "",
          "type": "bytes32"
        }
      ],
      "stateMutability": "nonpayable",
      "type": "function"
    },
    {
      "inputs": [
        {
          "internalType": "uint256",
          "name": "difficultyLevel",
          "type": "uint256"
        },
        {
          "internalType": "uint256",
          "name": "breakInStyle",
          "type": "uint256"
        },
        {
          "internalType": "uint256",
          "name": "scenario",
          "type": "uint256"
        }
      ],
      "name": "playGame",
      "outputs": [
        {
          "internalType": "bytes32",
          "name": "",
          "type": "bytes32"
        }
      ],
      "stateMutability": "nonpayable",
      "type": "function"
    },
    {
      "inputs": [
        {
          "internalType": "uint256",
          "name": "breakInStyle",
          "type": "uint256"
        },
        {
          "internalType": "address",
          "name": "targetPlayer",
          "type": "address"
        }
      ],
      "name": "playPVP",
      "outputs": [
        {
          "internalType": "bytes32",
          "name": "",
          "type": "bytes32"
        }
      ],
      "stateMutability": "nonpayable",
      "type": "function"
    },
    {
      "inputs": [],
      "name": "randomResult",
      "outputs": [
        {
          "internalType": "uint256",
          "name": "",
          "type": "uint256"
        }
      ],
      "stateMutability": "view",
      "type": "function"
    },
    {
      "inputs": [
        {
          "internalType": "bytes32",
          "name": "requestId",
          "type": "bytes32"
        },
        {
          "internalType": "uint256",
          "name": "randomness",
          "type": "uint256"
        }
      ],
      "name": "rawFulfillRandomness",
      "outputs": [],
      "stateMutability": "nonpayable",
      "type": "function"
    },
    {
      "inputs": [],
      "name": "renounceOwnership",
      "outputs": [],
      "stateMutability": "nonpayable",
      "type": "function"
    },
    {
      "inputs": [],
      "name": "startPlayPVP",
      "outputs": [],
      "stateMutability": "nonpayable",
      "type": "function"
    },
    {
      "inputs": [],
      "name": "stopPlayPVP",
      "outputs": [],
      "stateMutability": "nonpayable",
      "type": "function"
    },
    {
      "inputs": [
        {
          "internalType": "address",
          "name": "newOwner",
          "type": "address"
        }
      ],
      "name": "transferOwnership",
      "outputs": [],
      "stateMutability": "nonpayable",
      "type": "function"
    },
    {
      "inputs": [
        {
          "internalType": "uint256",
          "name": "amount",
          "type": "uint256"
        }
      ],
      "name": "withdraw",
      "outputs": [
        {
          "internalType": "bool",
          "name": "",
          "type": "bool"
        }
      ],
      "stateMutability": "nonpayable",
      "type": "function"
    },
    {
      "inputs": [
        {
          "internalType": "contract IERC20",
          "name": "token",
          "type": "address"
        }
      ],
      "name": "withdrawErc20",
      "outputs": [],
      "stateMutability": "nonpayable",
      "type": "function"
    },
    {
      "inputs": [
        {
          "internalType": "uint256",
          "name": "amountToWithdraw",
          "type": "uint256"
        }
      ],
      "name": "withdrawJewels",
      "outputs": [],
      "stateMutability": "nonpayable",
      "type": "function"
    },
    {
      "inputs": [],
      "name": "withdrawNFT",
      "outputs": [],
      "stateMutability": "nonpayable",
      "type": "function"
    },
    {
      "stateMutability": "payable",
      "type": "receive"
    }
  ],
  "transactionHash": "0x15e08170510c3f1e089a2e074081fa9e0087de46844655de5bbe82b911e637e9",
  "args": [
    "0x8C7382F9D8f56b33781fE506E897a4F1e2d17255",
    "0x326C977E6efc84E512bB9C30f76E30c160eD06FB",
    "0x6e75b569a01ef56d18cab6a8e71e6600d6ce853834d4a5748b720d06f878b3a4",
    "100000000000000",
    "0x6179B349067af80D0c171f43E6d767E4A00775Cd",
    "0xd406DC29f5f61004030E8E001e49239Daaf423f1",
    "0x9F110D35EF38857cf684ceC01D19F9806907D47a"
  ],
  "solcInputHash": "0fe244a96d5e7d7382f6e351ada9a92a",
  "bytecode": "0x60c0604052683635c9adc5dea0000060065542600755620d2f006008553480156200002957600080fd5b5060405162003c2438038062003c248339810160408190526200004c9162000142565b6001600160601b0319606088811b821660a05287901b1660805262000078620000723390565b620000d3565b600294909455600392909255600580546001600160a01b039283166001600160a01b031991821617909155600a805493831693821684179055600b80548216909317909255600c805491909316911617905550620001c59050565b600180546001600160a01b038381166001600160a01b0319831681179093556040519116919082907f8be0079c531659141344cd1fd0a4f28419497f9722a3daafe3b4186f6b6457e090600090a35050565b80516001600160a01b03811681146200013d57600080fd5b919050565b600080600080600080600060e0888a0312156200015e57600080fd5b620001698862000125565b9650620001796020890162000125565b95506040880151945060608801519350620001976080890162000125565b9250620001a760a0890162000125565b9150620001b760c0890162000125565b905092959891949750929550565b60805160601c60a05160601c613a176200020d600039600081816115100152611d380152600081816106a501528181610ea7015281816117d70152611d090152613a176000f3fe6080604052600436106101dc5760003560e01c80636c67370e116101025780639e082d7311610095578063d5c6c55611610064578063d5c6c55614610615578063db78dabd1461062b578063e91a7ca614610641578063f2fde38b1461066157600080fd5b80639e082d7314610595578063b993b264146105b5578063c7e42b1b146105d5578063cb34f83a146105f557600080fd5b80638da5cb5b116100d15780638da5cb5b146104565780638f7c31dd1461047457806394985ddd146104a15780639a530dad146104c157600080fd5b80636c67370e146103c45780636e04ff0d146103f3578063715018a61461042157806375b80d981461043657600080fd5b80634585e33b1161017a5780635d12ace4116101495780635d12ace4146103375780635e38c9541461035757806369b491411461036c57806369f3331d1461038c57600080fd5b80634585e33b146102c25780634685aa53146102e25780635966572f146102f75780635a6447301461031757600080fd5b80632e1a7d4d116101b65780632e1a7d4d1461025257806339dd4f6d1461028257806342619f661461029757806343330dfb146102ad57600080fd5b80630a43dc39146101e8578063180ab0951461021b57806322c8f8ab1461023d57600080fd5b366101e357005b600080fd5b3480156101f457600080fd5b5061020861020336600461362c565b610681565b6040519081526020015b60405180910390f35b34801561022757600080fd5b5061023b61023636600461365c565b610a07565b005b34801561024957600080fd5b5061023b610a69565b34801561025e57600080fd5b5061027261026d3660046135fa565b610b4d565b6040519015158152602001610212565b34801561028e57600080fd5b5061023b610bbf565b3480156102a357600080fd5b5061020860045481565b3480156102b957600080fd5b5061023b610bef565b3480156102ce57600080fd5b5061023b6102dd366004613531565b610c84565b3480156102ee57600080fd5b5061023b610ca7565b34801561030357600080fd5b5061023b6103123660046134c9565b610d4d565b34801561032357600080fd5b5061023b6103323660046135fa565b610d99565b34801561034357600080fd5b506102086103523660046136c4565b610e83565b34801561036357600080fd5b5061023b6110c0565b34801561037857600080fd5b5061023b6103873660046135fa565b6112b8565b34801561039857600080fd5b506009546103ac906001600160a01b031681565b6040516001600160a01b039091168152602001610212565b3480156103d057600080fd5b506103e46103df3660046135fa565b6113c5565b604051610212939291906137e7565b3480156103ff57600080fd5b5061041361040e366004613531565b61146f565b6040516102129291906137ad565b34801561042d57600080fd5b5061023b6114a0565b34801561044257600080fd5b5061023b6104513660046135fa565b6114d6565b34801561046257600080fd5b506001546001600160a01b03166103ac565b34801561048057600080fd5b5061020861048f3660046134c9565b60146020526000908152604090205481565b3480156104ad57600080fd5b5061023b6104bc36600461350f565b611505565b3480156104cd57600080fd5b506105366104dc3660046134c9565b601360205260009081526040902080546001820154600283015460038401546004850154600586015460068701546007880154600889015460098a0154600a909a0154989960ff808a169a610100909a048116999716968c565b604080519c8d529a151560208d0152981515998b019990995260608a0196909652931515608089015260a088019290925260c087015260e086015261010085015261012084015261014083019190915261016082015261018001610212565b3480156105a157600080fd5b5061023b6105b03660046135fa565b611587565b3480156105c157600080fd5b5061023b6105d03660046135a3565b6115ba565b3480156105e157600080fd5b5061023b6105f03660046134c9565b611649565b34801561060157600080fd5b5061020861061036600461362c565b6117b3565b34801561062157600080fd5b5061020860085481565b34801561063757600080fd5b5061020860075481565b34801561064d57600080fd5b5061023b61065c3660046135fa565b611ac4565b34801561066d57600080fd5b5061023b61067c3660046134c9565b611c6d565b6003546040516370a0823160e01b8152306004820152600091906001600160a01b037f000000000000000000000000000000000000000000000000000000000000000016906370a082319060240160206040518083038186803b1580156106e757600080fd5b505afa1580156106fb573d6000803e3d6000fd5b505050506040513d601f19601f8201168201806040525081019061071f9190613613565b10156107465760405162461bcd60e51b815260040161073d90613839565b60405180910390fd5b6001600160a01b038216600090815260136020526040902060019081015460ff161515146107b65760405162461bcd60e51b815260206004820152601d60248201527f4e6f2054617267657420436861726163746572204465706f7369746564000000604482015260640161073d565b33600090815260136020526040902060019081015460ff1615151461081d5760405162461bcd60e51b815260206004820152601f60248201527f596f752068617665206e6f20436861726163746572204465706f736974656400604482015260640161073d565b6001600160a01b0382163314156108765760405162461bcd60e51b815260206004820152601c60248201527f596f752063616e6e6f7420726f622066726f6d20796f757273656c6600000000604482015260640161073d565b33600090815260136020526040902060050154421161089457600080fd5b6001600160a01b03821660009081526013602052604090206005015442116108bb57600080fd5b6001600160a01b038216600090815260146020526040902054670de0b6b3a7640000106108e757600080fd5b6001600160a01b03821660009081526014602052604090205461090c906002906138d1565b336000908152601460205260409020541161092657600080fd5b6000610936600254600354611d05565b600081815260116020908152604080832060029055600f80835281842080546001600160a01b0319908116339081178355600183018c9055600880840180546001600160a01b038e1694168417905590875260138087528588206007808201546004870155818401546005870155600a80830154828801556009808401546006808a0191909155938401546003890155958b52928952968920968701548286015591860154600b850155850154600d84015584820154600c8401559390930154948690529252015591505092915050565b6001546001600160a01b03163314610a315760405162461bcd60e51b815260040161073d90613884565b6000848152600e6020908152604090912061ffff8085166001830155831660028201558451610a6292860190613391565b5050505050565b33600090815260136020526040902060019081015460ff16151514610ad05760405162461bcd60e51b815260206004820152601760248201527f436861726163746572204e6f74204465706f7369746564000000000000000000604482015260640161073d565b33600090815260136020526040902060060154606411610aef57600080fd5b600654336000908152601460205260409020541015610b0d57600080fd5b6006543360009081526014602052604081208054909190610b2f908490613904565b90915550503360009081526013602052604090206064600690910155565b6001546000906001600160a01b03163314610b7a5760405162461bcd60e51b815260040161073d90613884565b47821115610b8757600080fd5b604051339083156108fc029084906000818181858888f19350505050158015610bb4573d6000803e3d6000fd5b50600190505b919050565b6001546001600160a01b03163314610be95760405162461bcd60e51b815260040161073d90613884565b42600755565b33600090815260136020526040902060040154421015610c685760405162461bcd60e51b815260206004820152602e60248201527f596f75206d7573742077616974203720646179732073696e636520796f75207360448201526d74617274656420706c6179696e6760901b606482015260840161073d565b336000908152601360205260409020600301805460ff19169055565b6005546001600160a01b03163314610c9b57600080fd5b610ca3611e8f565b5050565b33600090815260136020526040902060019081015460ff16151514610d0e5760405162461bcd60e51b815260206004820152601760248201527f436861726163746572204e6f74206465706f7369746564000000000000000000604482015260640161073d565b336000908152601360205260409020600301805460ff19166001179055610d384262093a806138b9565b33600090815260136020526040902060040155565b6001546001600160a01b03163314610d775760405162461bcd60e51b815260040161073d90613884565b600980546001600160a01b0319166001600160a01b0392909216919091179055565b33600090815260136020526040902060010154610100900460ff1615610dd15760405162461bcd60e51b815260040161073d9061380c565b600c546040516323b872dd60e01b8152336004820152306024820152604481018390526001600160a01b03909116906323b872dd90606401602060405180830381600087803b158015610e2357600080fd5b505af1158015610e37573d6000803e3d6000fd5b505050506040513d601f19601f82011682018060405250810190610e5b91906134ed565b503360009081526014602052604081208054839290610e7b9084906138b9565b909155505050565b6003546040516370a0823160e01b8152306004820152600091906001600160a01b037f000000000000000000000000000000000000000000000000000000000000000016906370a082319060240160206040518083038186803b158015610ee957600080fd5b505afa158015610efd573d6000803e3d6000fd5b505050506040513d601f19601f82011682018060405250810190610f219190613613565b1015610f3f5760405162461bcd60e51b815260040161073d90613839565b33600090815260136020526040902060019081015460ff16151514610f9f5760405162461bcd60e51b8152602060048201526016602482015275139bc810da185c9858dd195c8811195c1bdcda5d195960521b604482015260640161073d565b33600090815260136020526040902060010154610100900460ff1615610fd75760405162461bcd60e51b815260040161073d9061380c565b600d54821061101b5760405162461bcd60e51b815260206004820152601060248201526f4e6f2047616d65205363656e6172696f60801b604482015260640161073d565b600061102b600254600354611d05565b6000818152601160209081526040808320839055601080835281842080546001600160a01b031916339081178255600282018b9055600382018c9055600182018a90558552601384529184206007808201546005850155600880830154600680870191909155600a84015491860191909155600983015491850191909155015493859052909152600401559150509392505050565b33600090815260136020526040902060019081015460ff161515146111205760405162461bcd60e51b8152602060048201526016602482015275139bc810da185c9858dd195c8811195c1bdcda5d195960521b604482015260640161073d565b33600090815260136020526040902060010154610100900460ff16156111585760405162461bcd60e51b815260040161073d9061380c565b600a805433600090815260136020526040908190208054600682015460078301546008840154600985015494909701549451631d56cc6560e01b81526004810193909352602483019190915260448201526064810194909452608484015260a48301526001600160a01b031690631d56cc659060c401602060405180830381600087803b1580156111e857600080fd5b505af11580156111fc573d6000803e3d6000fd5b505050506040513d601f19601f8201168201806040525081019061122091906134ed565b50600b5433600081815260136020526040908190205490516323b872dd60e01b8152306004820152602481019290925260448201526001600160a01b03909116906323b872dd90606401600060405180830381600087803b15801561128457600080fd5b505af1158015611298573d6000803e3d6000fd5b5050336000908152601360205260409020600101805460ff191690555050565b336000908152601460205260409020548111156113215760405162461bcd60e51b815260206004820152602160248201527f547279696e6720746f20776974686472617720746f6f206d756368206d6f6e656044820152607960f81b606482015260840161073d565b600c5460405163a9059cbb60e01b8152336004820152602481018390526001600160a01b039091169063a9059cbb90604401602060405180830381600087803b15801561136d57600080fd5b505af1158015611381573d6000803e3d6000fd5b505050506040513d601f19601f820116820180604052508101906113a591906134ed565b503360009081526014602052604081208054839290610e7b908490613904565b600e602052600090815260409020805481906113e09061391b565b80601f016020809104026020016040519081016040528092919081815260200182805461140c9061391b565b80156114595780601f1061142e57610100808354040283529160200191611459565b820191906000526020600020905b81548152906001019060200180831161143c57829003601f168201915b5050505050908060010154908060020154905083565b6000606060085460075461148391906138b9565b421160405180602001604052806000815250915091509250929050565b6001546001600160a01b031633146114ca5760405162461bcd60e51b815260040161073d90613884565b6114d46000611ea4565b565b6001546001600160a01b031633146115005760405162461bcd60e51b815260040161073d90613884565b600855565b336001600160a01b037f0000000000000000000000000000000000000000000000000000000000000000161461157d5760405162461bcd60e51b815260206004820152601f60248201527f4f6e6c7920565246436f6f7264696e61746f722063616e2066756c66696c6c00604482015260640161073d565b610ca38282611ef6565b6001546001600160a01b031633146115b15760405162461bcd60e51b815260040161073d90613884565b60065542600755565b6001546001600160a01b031633146115e45760405162461bcd60e51b815260040161073d90613884565b600d546000818152600e60209081526040909120855161160692870190613391565b506000818152600e6020526040812061ffff85166001808301919091556002909101849055600d80549192909161163e9084906138b9565b909155505050505050565b6001546001600160a01b031633146116735760405162461bcd60e51b815260040161073d90613884565b6040516370a0823160e01b81523060048201526001600160a01b0382169063a9059cbb90339083906370a082319060240160206040518083038186803b1580156116bc57600080fd5b505afa1580156116d0573d6000803e3d6000fd5b505050506040513d601f19601f820116820180604052508101906116f49190613613565b6040516001600160e01b031960e085901b1681526001600160a01b0390921660048301526024820152604401602060405180830381600087803b15801561173a57600080fd5b505af115801561174e573d6000803e3d6000fd5b505050506040513d601f19601f8201168201806040525081019061177291906134ed565b6117b05760405162461bcd60e51b815260206004820152600f60248201526e151c985b9cd9995c8819985a5b1959608a1b604482015260640161073d565b50565b6003546040516370a0823160e01b8152306004820152600091906001600160a01b037f000000000000000000000000000000000000000000000000000000000000000016906370a082319060240160206040518083038186803b15801561181957600080fd5b505afa15801561182d573d6000803e3d6000fd5b505050506040513d601f19601f820116820180604052508101906118519190613613565b101561186f5760405162461bcd60e51b815260040161073d90613839565b6001600160a01b038216600090815260136020526040902060019081015460ff161515146118df5760405162461bcd60e51b815260206004820152601d60248201527f4e6f2054617267657420436861726163746572204465706f7369746564000000604482015260640161073d565b33600090815260136020526040902060019081015460ff161515146119465760405162461bcd60e51b815260206004820152601f60248201527f596f752068617665206e6f20436861726163746572204465706f736974656400604482015260640161073d565b6001600160a01b0382166000908152601360205260409020600190810154610100900460ff161515146119bb5760405162461bcd60e51b815260206004820152601a60248201527f436861726163746572206973206e6f7420696e20507269736f6e000000000000604482015260640161073d565b6001600160a01b038216331415611a145760405162461bcd60e51b815260206004820152601860248201527f596f752063616e6e6f74206672656520796f757273656c660000000000000000604482015260640161073d565b6000611a24600254600354611d05565b6000818152601160209081526040808320600190819055601280845282852080546001600160a01b03199081163390811783559382018c9055600780830180546001600160a01b038e169316929092179091559286526013855292852091820154600384015560088201546004840155600a8201546006808501919091556009830154600585015590910154938590529091526002015591505092915050565b33600090815260136020526040902060019081015460ff1615151415611b2c5760405162461bcd60e51b815260206004820152601b60248201527f43686172616374657220416c7265616479204465706f73697465640000000000604482015260640161073d565b600b546040516323b872dd60e01b8152336004820152306024820152604481018390526001600160a01b03909116906323b872dd90606401600060405180830381600087803b158015611b7e57600080fd5b505af1158015611b92573d6000803e3d6000fd5b505033600090815260136020526040908190208481556001908101805460ff19169091179055600a5490516347c4ef2560e01b8152600481018590526001600160a01b0390911692506347c4ef25915060240160a060405180830381600087803b158015611bff57600080fd5b505af1158015611c13573d6000803e3d6000fd5b505050506040513d601f19601f82011682018060405250810190611c3791906136f0565b33600090815260136020526040902060068101919091556009810191909155600a81019190915560088101919091556007015550565b6001546001600160a01b03163314611c975760405162461bcd60e51b815260040161073d90613884565b6001600160a01b038116611cfc5760405162461bcd60e51b815260206004820152602660248201527f4f776e61626c653a206e6577206f776e657220697320746865207a65726f206160448201526564647265737360d01b606482015260840161073d565b6117b081611ea4565b60007f00000000000000000000000000000000000000000000000000000000000000006001600160a01b0316634000aea07f000000000000000000000000000000000000000000000000000000000000000084866000604051602001611d75929190918252602082015260400190565b6040516020818303038152906040526040518463ffffffff1660e01b8152600401611da29392919061377d565b602060405180830381600087803b158015611dbc57600080fd5b505af1158015611dd0573d6000803e3d6000fd5b505050506040513d601f19601f82011682018060405250810190611df491906134ed565b5060008381526020818152604080832054815180840188905280830185905230606082015260808082018390528351808303909101815260a090910190925281519183019190912086845292909152611e4e9060016138b9565b60008581526020818152604091829020929092558051808301879052808201849052815180820383018152606090910190915280519101205b949350505050565b6009546114d4906001600160a01b0316611c6d565b600180546001600160a01b038381166001600160a01b0319831681179093556040519116919082907f8be0079c531659141344cd1fd0a4f28419497f9722a3daafe3b4186f6b6457e090600090a35050565b600082815260116020526040902054611f1357611f138183611f55565b60008281526011602052604090205460011415611f3457611f348183612752565b60008281526011602052604090205460021415610ca357610ca38183612d7a565b611f616107d083613956565b60011415611fcf57600081815260106020818152604080842080546001600160a01b03908116865260138452828620600101805460ff1916905586865293909252905490516000805160206139c283398151915293611fc393869316916137c8565b60405180910390a15050565b6014611fde6202306084613956565b611fe89190613956565b6001141561211d57600060636120016201e24085613956565b61200b9190613956565b600083815260106020526040902060040154909150606490829061202f9083613904565b61203991906138b9565b11156120a657600082815260106020818152604080842080546001600160a01b03908116865260138452828620600101805460ff1916905587865293909252905490516000805160206139c28339815191529361209993879316916137c8565b60405180910390a1505050565b6000828152601060209081526040808320546001600160a01b031683526013909152812060060180548392906120dd908490613904565b9091555050600082815260106020526040908190205490516000805160206139c2833981519152916120999185916001600160a01b0316906001906137c8565b601461212b6159e784613956565b6121359190613956565b600114156122a75760006103e861214e61d43185613956565b6121589190613956565b60008381526010602052604090206005015490915081101561220d5760026121826108a685613956565b61218c9190613956565b600114156121d2576000828152601060209081526040808320546001600160a01b03168352601390915281206007018054600192906121cc9084906138b9565b90915550505b600082815260106020526040908190205490516000805160206139c2833981519152916120999185916001600160a01b0316906003906137c8565b6000828152601060209081526040808320546001600160a01b0316835260139091529020600101805461ff00191661010017905561224e426202a3006138b9565b600083815260106020818152604080842080546001600160a01b039081168652601384528286206002908101979097559488905292909152905490516000805160206139c28339815191529361209993879316916137c8565b60008181526010602052604090206002015461248e5760008181526010602081815260408084206001808201548652600e84529185209091015485855292909152600301546102ee6122fc6203989a87613956565b6123069190613956565b61231091906138b9565b61231a91906138b9565b60008381526010602052604090206007015490915081101561245357600082815260106020818152604080842060018101548552600e835290842060020154868552929091526003015461236e91906138e5565b6000848152601060209081526040808320546001600160a01b0316835260149091528120805492935083929091906123a79084906138b9565b90915550600290506123bb6108a686613956565b6123c59190613956565b6001141561240b576000838152601060209081526040808320546001600160a01b03168352601390915281206009018054600192906124059084906138b9565b90915550505b600083815260106020526040908190205490516000805160206139c2833981519152916124459186916001600160a01b03169085906137c8565b60405180910390a150505050565b600082815260106020526040908190205490516000805160206139c2833981519152916120999185916001600160a01b0316906004906137c8565b600081815260106020526040902060020154600114156125f05760008181526010602081815260408084206001808201548652600e84529185209091015485855292909152600301546102ee6124e76206ec2e87613956565b6124f19190613956565b6124fb91906138b9565b61250591906138b9565b60008381526010602052604090206008015490915081101561245357600082815260106020818152604080842060018101548552600e835290842060020154868552929091526003015461255991906138e5565b6000848152601060209081526040808320546001600160a01b0316835260149091528120805492935083929091906125929084906138b9565b90915550600290506125a66108a686613956565b6125b09190613956565b6001141561240b576000838152601060209081526040808320546001600160a01b0316835260139091528120600a018054600192906124059084906138b9565b60008181526010602052604090206002908101541415610ca35760008181526010602081815260408084206001808201548652600e84529185209091015485855292909152600301546102ee612649620c000387613956565b6126539190613956565b61265d91906138b9565b61266791906138b9565b60008381526010602052604090206006015490915081101561245357600082815260106020818152604080842060018101548552600e83529084206002015486855292909152600301546126bb91906138e5565b6000848152601060209081526040808320546001600160a01b0316835260149091528120805492935083929091906126f49084906138b9565b90915550600290506127086108a686613956565b6127129190613956565b6001141561240b576000838152601060209081526040808320546001600160a01b03168352601390915281206008018054600192906124059084906138b9565b61275e6103e883613956565b600114156127c057600081815260126020818152604080842080546001600160a01b03908116865260138452828620600101805460ff1916905586865293909252905490516000805160206139c283398151915293611fc393869316916137c8565b600a6127cf6202306084613956565b6127d99190613956565b600114156128fa57600060636127f26201e24085613956565b6127fc9190613956565b60008381526012602052604090206002015490915060649082906128209083613904565b61282a91906138b9565b111561288357336000908152601360209081526040808320600101805460ff1916905584835260129091528082205490516000805160206139c2833981519152926120999286926001600160a01b0390911691906137c8565b6000828152601260209081526040808320546001600160a01b031683526013909152812060060180548392906128ba908490613904565b9091555050600082815260126020526040908190205490516000805160206139c2833981519152916120999185916001600160a01b0316906001906137c8565b60056129086159e784613956565b6129129190613956565b60011415612a685760006103e861292b61d43185613956565b6129359190613956565b6000838152601260205260409020600301549091508110156129ea57600261295f6108a685613956565b6129699190613956565b600114156129af576000828152601260209081526040808320546001600160a01b03168352601390915281206007018054600192906129a99084906138b9565b90915550505b600082815260126020526040908190205490516000805160206139c2833981519152916120999185916001600160a01b0316906003906137c8565b336000908152601360205260409020600101805461ff001916610100179055612a16426203f4806138b9565b3360009081526013602090815260408083206002908101949094558583526012909152908190205490516000805160206139c2833981519152926120999286926001600160a01b0390911691906137c8565b600081815260126020526040902060010154612bc05760006103e8612a906203989a85613956565b612a9a9190613956565b600083815260126020526040902060050154909150811015612b85576000828152601260209081526040808320600701546001600160a01b0316835260139091529020600101805461ff00191690556002612af76108a685613956565b612b019190613956565b60011415612b47576000828152601260209081526040808320546001600160a01b0316835260139091528120600901805460019290612b419084906138b9565b90915550505b600082815260126020526040908190206007015490516000805160206139c2833981519152916120999185916001600160a01b0316906005906137c8565b600082815260126020526040908190205490516000805160206139c2833981519152916120999185916001600160a01b0316906004906137c8565b60008181526012602052604090206001908101541415612c9d5760006103e8612bec6206ec2e85613956565b612bf69190613956565b600083815260126020526040902060060154909150811015612b85576000828152601260209081526040808320600701546001600160a01b0316835260139091529020600101805461ff00191690556002612c536108a685613956565b612c5d9190613956565b60011415612b47576000828152601260209081526040808320546001600160a01b0316835260139091528120600a01805460019290612b419084906138b9565b60008181526012602052604090206001015460021415610ca35760006103e8612cc9620c000385613956565b612cd39190613956565b600083815260126020526040902060040154909150811015612b85576000828152601260209081526040808320600701546001600160a01b0316835260139091529020600101805461ff00191690556004612d306108a685613956565b612d3a9190613956565b60011415612b47576000828152601260209081526040808320546001600160a01b0316835260139091528120600801805460019290612b419084906138b9565b612d85606483613956565b60011415612de7576000818152600f6020818152604080842080546001600160a01b03908116865260138452828620600101805460ff1916905586865293909252905490516000805160206139c283398151915293611fc393869316916137c8565b600b612df66202306084613956565b612e009190613956565b60031415612f215760006063612e196201e24085613956565b612e239190613956565b6000838152600f60205260409020600301549091506064908290612e479083613904565b612e5191906138b9565b1115612eaa57336000908152601360209081526040808320600101805460ff19169055848352600f9091528082205490516000805160206139c2833981519152926120999286926001600160a01b0390911691906137c8565b6000828152600f60209081526040808320546001600160a01b03168352601390915281206006018054839290612ee1908490613904565b90915550506000828152600f6020526040908190205490516000805160206139c2833981519152916120999185916001600160a01b0316906001906137c8565b6000818152600f602052604090206001015461316b576000818152600f60205260408120600c01546103e8612f596203989a86613956565b612f639190613956565b612f6d91906138b9565b6000838152600f6020526040902060060154909150811015613130576000828152600f60209081526040808320600801546001600160a01b03168352601491829052822054612fbc91906138d1565b90506002612fcc6108a686613956565b612fd69190613956565b6001141561301c576000838152600f60209081526040808320546001600160a01b03168352601390915281206009018054600192906130169084906138b9565b90915550505b6000838152600f60209081526040808320600801546001600160a01b03168352601490915281208054839290613053908490613904565b90915550506000838152600f60209081526040808320546001600160a01b0316835260149091528120805483929061308c9084906138b9565b9091555061309f905042620151806138b9565b6000848152600f60209081526040808320546001600160a01b0316835260139091529020600501556130d442620151806138b9565b6000848152600f6020818152604080842060088101546001600160a01b039081168652601384528286206005019690965593889052919052905490516000805160206139c28339815191529261244592879291169085906137c8565b6000828152600f6020526040908190205490516000805160206139c2833981519152916120999185916001600160a01b0316906004906137c8565b6000818152600f602052604090206001908101541415613298576000818152600f60205260408120600d01546103e86131a76206ec2e86613956565b6131b19190613956565b6131bb91906138b9565b6000838152600f6020526040902060070154909150811015613130576000828152600f60209081526040808320600801546001600160a01b0316835260149182905282205461320a91906138d1565b9050600261321a6108a686613956565b6132249190613956565b60011415613264576000838152600f60209081526040808320546001600160a01b0316835260139091528120600a018054600192906130539084906138b9565b6000838152600f60209081526040808320546001600160a01b0316835260149091528120805483929061308c9084906138b9565b6000818152600f602052604090206001015460021415610ca3576000818152600f60205260408120600b01546103e86132d4620c000386613956565b6132de9190613956565b6132e891906138b9565b6000838152600f6020526040902060050154909150811015613130576000828152600f60209081526040808320600801546001600160a01b0316835260149182905282205461333791906138d1565b905060026133476108a686613956565b6133519190613956565b6001141561301c576000838152600f60209081526040808320546001600160a01b03168352601390915281206008018054600192906130169084906138b9565b82805461339d9061391b565b90600052602060002090601f0160209004810192826133bf5760008555613405565b82601f106133d857805160ff1916838001178555613405565b82800160010185558215613405579182015b828111156134055782518255916020019190600101906133ea565b50613411929150613415565b5090565b5b808211156134115760008155600101613416565b600082601f83011261343b57600080fd5b813567ffffffffffffffff8082111561345657613456613996565b604051601f8301601f19908116603f0116810190828211818310171561347e5761347e613996565b8160405283815286602085880101111561349757600080fd5b836020870160208301376000602085830101528094505050505092915050565b803561ffff81168114610bba57600080fd5b6000602082840312156134db57600080fd5b81356134e6816139ac565b9392505050565b6000602082840312156134ff57600080fd5b815180151581146134e657600080fd5b6000806040838503121561352257600080fd5b50508035926020909101359150565b6000806020838503121561354457600080fd5b823567ffffffffffffffff8082111561355c57600080fd5b818501915085601f83011261357057600080fd5b81358181111561357f57600080fd5b86602082850101111561359157600080fd5b60209290920196919550909350505050565b6000806000606084860312156135b857600080fd5b833567ffffffffffffffff8111156135cf57600080fd5b6135db8682870161342a565b9350506135ea602085016134b7565b9150604084013590509250925092565b60006020828403121561360c57600080fd5b5035919050565b60006020828403121561362557600080fd5b5051919050565b6000806040838503121561363f57600080fd5b823591506020830135613651816139ac565b809150509250929050565b6000806000806080858703121561367257600080fd5b84359350602085013567ffffffffffffffff81111561369057600080fd5b61369c8782880161342a565b9350506136ab604086016134b7565b91506136b9606086016134b7565b905092959194509250565b6000806000606084860312156136d957600080fd5b505081359360208301359350604090920135919050565b600080600080600060a0868803121561370857600080fd5b5050835160208501516040860151606087015160809097015192989197509594509092509050565b6000815180845260005b818110156137565760208185018101518683018201520161373a565b81811115613768576000602083870101525b50601f01601f19169290920160200192915050565b60018060a01b03841681528260208201526060604082015260006137a46060830184613730565b95945050505050565b8215158152604060208201526000611e876040830184613730565b9283526001600160a01b03919091166020830152604082015260600190565b6060815260006137fa6060830186613730565b60208301949094525060400152919050565b60208082526013908201527221b430b930b1ba32b91034b710283934b9b7b760691b604082015260600190565b6020808252602b908201527f4e6f7420656e6f756768204c494e4b202d2066696c6c20636f6e74726163742060408201526a1dda5d1a0819985d58d95d60aa1b606082015260800190565b6020808252818101527f4f776e61626c653a2063616c6c6572206973206e6f7420746865206f776e6572604082015260600190565b600082198211156138cc576138cc61396a565b500190565b6000826138e0576138e0613980565b500490565b60008160001904831182151516156138ff576138ff61396a565b500290565b6000828210156139165761391661396a565b500390565b600181811c9082168061392f57607f821691505b6020821081141561395057634e487b7160e01b600052602260045260246000fd5b50919050565b60008261396557613965613980565b500690565b634e487b7160e01b600052601160045260246000fd5b634e487b7160e01b600052601260045260246000fd5b634e487b7160e01b600052604160045260246000fd5b6001600160a01b03811681146117b057600080fdfee8c04b5f7e76c9af6cbeb7096731c7cd35891adcd4c6f15401de8ad204d7c234a2646970667358221220242bae4395eee240681a27ad55c6ff42169ccaa946e4dbe1a7e4ff49f899876264736f6c63430008070033",
  "devdoc": {
    "kind": "dev",
    "methods": {
      "owner()": {
        "details": "Returns the address of the current owner."
      },
      "renounceOwnership()": {
        "details": "Leaves the contract without owner. It will not be possible to call `onlyOwner` functions anymore. Can only be called by the current owner. NOTE: Renouncing ownership will leave the contract without an owner, thereby removing any functionality that is only available to the owner."
      },
      "transferOwnership(address)": {
        "details": "Transfers ownership of the contract to a new account (`newOwner`). Can only be called by the current owner."
      }
    },
    "version": 1
  },
  "userdoc": {
    "kind": "user",
    "methods": {},
    "version": 1
  },
  "storageLayout": {
    "storage": [
      {
        "astId": 79,
        "contract": "contracts/breakInGame.sol:BreakInGame",
        "label": "nonces",
        "offset": 0,
        "slot": "0",
        "type": "t_mapping(t_bytes32,t_uint256)"
      },
      {
        "astId": 292,
        "contract": "contracts/breakInGame.sol:BreakInGame",
        "label": "_owner",
        "offset": 0,
        "slot": "1",
        "type": "t_address"
      },
      {
        "astId": 4154,
        "contract": "contracts/breakInGame.sol:BreakInGame",
        "label": "keyHash",
        "offset": 0,
        "slot": "2",
        "type": "t_bytes32"
      },
      {
        "astId": 4156,
        "contract": "contracts/breakInGame.sol:BreakInGame",
        "label": "fee",
        "offset": 0,
        "slot": "3",
        "type": "t_uint256"
      },
      {
        "astId": 4158,
        "contract": "contracts/breakInGame.sol:BreakInGame",
        "label": "randomResult",
        "offset": 0,
        "slot": "4",
        "type": "t_uint256"
      },
      {
        "astId": 4160,
        "contract": "contracts/breakInGame.sol:BreakInGame",
        "label": "keeperRegistryAddress",
        "offset": 0,
        "slot": "5",
        "type": "t_address"
      },
      {
        "astId": 4178,
        "contract": "contracts/breakInGame.sol:BreakInGame",
        "label": "hospitalBill",
        "offset": 0,
        "slot": "6",
        "type": "t_uint256"
      },
      {
        "astId": 4182,
        "contract": "contracts/breakInGame.sol:BreakInGame",
        "label": "lastCheckIn",
        "offset": 0,
        "slot": "7",
        "type": "t_uint256"
      },
      {
        "astId": 4185,
        "contract": "contracts/breakInGame.sol:BreakInGame",
        "label": "checkInTimeInterval",
        "offset": 0,
        "slot": "8",
        "type": "t_uint256"
      },
      {
        "astId": 4187,
        "contract": "contracts/breakInGame.sol:BreakInGame",
        "label": "nextOwner",
        "offset": 0,
        "slot": "9",
        "type": "t_address"
      },
      {
        "astId": 4190,
        "contract": "contracts/breakInGame.sol:BreakInGame",
        "label": "IBreakInNFTMinter",
        "offset": 0,
        "slot": "10",
        "type": "t_contract(INFTMinter)4146"
      },
      {
        "astId": 4193,
        "contract": "contracts/breakInGame.sol:BreakInGame",
        "label": "breakInNFT",
        "offset": 0,
        "slot": "11",
        "type": "t_contract(IERC721)1423"
      },
      {
        "astId": 4196,
        "contract": "contracts/breakInGame.sol:BreakInGame",
        "label": "socialLegoToken",
        "offset": 0,
        "slot": "12",
        "type": "t_contract(IERC20)466"
      },
      {
        "astId": 4373,
        "contract": "contracts/breakInGame.sol:BreakInGame",
        "label": "differentGameScenarios",
        "offset": 0,
        "slot": "13",
        "type": "t_uint256"
      },
      {
        "astId": 4378,
        "contract": "contracts/breakInGame.sol:BreakInGame",
        "label": "gameScenarios",
        "offset": 0,
        "slot": "14",
        "type": "t_mapping(t_uint256,t_struct(scenarios)4255_storage)"
      },
      {
        "astId": 4383,
        "contract": "contracts/breakInGame.sol:BreakInGame",
        "label": "currentPVPGamePlays",
        "offset": 0,
        "slot": "15",
        "type": "t_mapping(t_bytes32,t_struct(PvP)4360_storage)"
      },
      {
        "astId": 4388,
        "contract": "contracts/breakInGame.sol:BreakInGame",
        "label": "currentGamePlays",
        "offset": 0,
        "slot": "16",
        "type": "t_mapping(t_bytes32,t_struct(gamePlay)4314_storage)"
      },
      {
        "astId": 4393,
        "contract": "contracts/breakInGame.sol:BreakInGame",
        "label": "currentGameMode",
        "offset": 0,
        "slot": "17",
        "type": "t_mapping(t_bytes32,t_struct(gameModes)4363_storage)"
      },
      {
        "astId": 4398,
        "contract": "contracts/breakInGame.sol:BreakInGame",
        "label": "currentJailBreaks",
        "offset": 0,
        "slot": "18",
        "type": "t_mapping(t_bytes32,t_struct(jailBreak)4331_storage)"
      },
      {
        "astId": 4403,
        "contract": "contracts/breakInGame.sol:BreakInGame",
        "label": "NFTCharacterDepositLedger",
        "offset": 0,
        "slot": "19",
        "type": "t_mapping(t_address,t_struct(depostedCharacter)4295_storage)"
      },
      {
        "astId": 4407,
        "contract": "contracts/breakInGame.sol:BreakInGame",
        "label": "jewelDepositLedger",
        "offset": 0,
        "slot": "20",
        "type": "t_mapping(t_address,t_uint256)"
      }
    ],
    "types": {
      "t_address": {
        "encoding": "inplace",
        "label": "address",
        "numberOfBytes": "20"
      },
      "t_bool": {
        "encoding": "inplace",
        "label": "bool",
        "numberOfBytes": "1"
      },
      "t_bytes32": {
        "encoding": "inplace",
        "label": "bytes32",
        "numberOfBytes": "32"
      },
      "t_contract(IERC20)466": {
        "encoding": "inplace",
        "label": "contract IERC20",
        "numberOfBytes": "20"
      },
      "t_contract(IERC721)1423": {
        "encoding": "inplace",
        "label": "contract IERC721",
        "numberOfBytes": "20"
      },
      "t_contract(INFTMinter)4146": {
        "encoding": "inplace",
        "label": "contract INFTMinter",
        "numberOfBytes": "20"
      },
      "t_mapping(t_address,t_struct(depostedCharacter)4295_storage)": {
        "encoding": "mapping",
        "key": "t_address",
        "label": "mapping(address => struct BreakInGame.depostedCharacter)",
        "numberOfBytes": "32",
        "value": "t_struct(depostedCharacter)4295_storage"
      },
      "t_mapping(t_address,t_uint256)": {
        "encoding": "mapping",
        "key": "t_address",
        "label": "mapping(address => uint256)",
        "numberOfBytes": "32",
        "value": "t_uint256"
      },
      "t_mapping(t_bytes32,t_struct(PvP)4360_storage)": {
        "encoding": "mapping",
        "key": "t_bytes32",
        "label": "mapping(bytes32 => struct BreakInGame.PvP)",
        "numberOfBytes": "32",
        "value": "t_struct(PvP)4360_storage"
      },
      "t_mapping(t_bytes32,t_struct(gameModes)4363_storage)": {
        "encoding": "mapping",
        "key": "t_bytes32",
        "label": "mapping(bytes32 => struct BreakInGame.gameModes)",
        "numberOfBytes": "32",
        "value": "t_struct(gameModes)4363_storage"
      },
      "t_mapping(t_bytes32,t_struct(gamePlay)4314_storage)": {
        "encoding": "mapping",
        "key": "t_bytes32",
        "label": "mapping(bytes32 => struct BreakInGame.gamePlay)",
        "numberOfBytes": "32",
        "value": "t_struct(gamePlay)4314_storage"
      },
      "t_mapping(t_bytes32,t_struct(jailBreak)4331_storage)": {
        "encoding": "mapping",
        "key": "t_bytes32",
        "label": "mapping(bytes32 => struct BreakInGame.jailBreak)",
        "numberOfBytes": "32",
        "value": "t_struct(jailBreak)4331_storage"
      },
      "t_mapping(t_bytes32,t_uint256)": {
        "encoding": "mapping",
        "key": "t_bytes32",
        "label": "mapping(bytes32 => uint256)",
        "numberOfBytes": "32",
        "value": "t_uint256"
      },
      "t_mapping(t_uint256,t_struct(scenarios)4255_storage)": {
        "encoding": "mapping",
        "key": "t_uint256",
        "label": "mapping(uint256 => struct BreakInGame.scenarios)",
        "numberOfBytes": "32",
        "value": "t_struct(scenarios)4255_storage"
      },
      "t_string_storage": {
        "encoding": "bytes",
        "label": "string",
        "numberOfBytes": "32"
      },
      "t_struct(PvP)4360_storage": {
        "encoding": "inplace",
        "label": "struct BreakInGame.PvP",
        "members": [
          {
            "astId": 4333,
            "contract": "contracts/breakInGame.sol:BreakInGame",
            "label": "player",
            "offset": 0,
            "slot": "0",
            "type": "t_address"
          },
          {
            "astId": 4335,
            "contract": "contracts/breakInGame.sol:BreakInGame",
            "label": "breakInStyle",
            "offset": 0,
            "slot": "1",
            "type": "t_uint256"
          },
          {
            "astId": 4337,
            "contract": "contracts/breakInGame.sol:BreakInGame",
            "label": "difficultyLevel",
            "offset": 0,
            "slot": "2",
            "type": "t_uint256"
          },
          {
            "astId": 4339,
            "contract": "contracts/breakInGame.sol:BreakInGame",
            "label": "health",
            "offset": 0,
            "slot": "3",
            "type": "t_uint256"
          },
          {
            "astId": 4341,
            "contract": "contracts/breakInGame.sol:BreakInGame",
            "label": "agility",
            "offset": 0,
            "slot": "4",
            "type": "t_uint256"
          },
          {
            "astId": 4343,
            "contract": "contracts/breakInGame.sol:BreakInGame",
            "label": "strength",
            "offset": 0,
            "slot": "5",
            "type": "t_uint256"
          },
          {
            "astId": 4345,
            "contract": "contracts/breakInGame.sol:BreakInGame",
            "label": "sneak",
            "offset": 0,
            "slot": "6",
            "type": "t_uint256"
          },
          {
            "astId": 4347,
            "contract": "contracts/breakInGame.sol:BreakInGame",
            "label": "charm",
            "offset": 0,
            "slot": "7",
            "type": "t_uint256"
          },
          {
            "astId": 4349,
            "contract": "contracts/breakInGame.sol:BreakInGame",
            "label": "targetPlayer",
            "offset": 0,
            "slot": "8",
            "type": "t_address"
          },
          {
            "astId": 4351,
            "contract": "contracts/breakInGame.sol:BreakInGame",
            "label": "targetPlayerHealth",
            "offset": 0,
            "slot": "9",
            "type": "t_uint256"
          },
          {
            "astId": 4353,
            "contract": "contracts/breakInGame.sol:BreakInGame",
            "label": "targetPlayerAgility",
            "offset": 0,
            "slot": "10",
            "type": "t_uint256"
          },
          {
            "astId": 4355,
            "contract": "contracts/breakInGame.sol:BreakInGame",
            "label": "targetPlayerStrength",
            "offset": 0,
            "slot": "11",
            "type": "t_uint256"
          },
          {
            "astId": 4357,
            "contract": "contracts/breakInGame.sol:BreakInGame",
            "label": "targetPlayerSneak",
            "offset": 0,
            "slot": "12",
            "type": "t_uint256"
          },
          {
            "astId": 4359,
            "contract": "contracts/breakInGame.sol:BreakInGame",
            "label": "targetPlayerCharm",
            "offset": 0,
            "slot": "13",
            "type": "t_uint256"
          }
        ],
        "numberOfBytes": "448"
      },
      "t_struct(depostedCharacter)4295_storage": {
        "encoding": "inplace",
        "label": "struct BreakInGame.depostedCharacter",
        "members": [
          {
            "astId": 4272,
            "contract": "contracts/breakInGame.sol:BreakInGame",
            "label": "NFTID",
            "offset": 0,
            "slot": "0",
            "type": "t_uint256"
          },
          {
            "astId": 4274,
            "contract": "contracts/breakInGame.sol:BreakInGame",
            "label": "isDeposited",
            "offset": 0,
            "slot": "1",
            "type": "t_bool"
          },
          {
            "astId": 4276,
            "contract": "contracts/breakInGame.sol:BreakInGame",
            "label": "arrested",
            "offset": 1,
            "slot": "1",
            "type": "t_bool"
          },
          {
            "astId": 4278,
            "contract": "contracts/breakInGame.sol:BreakInGame",
            "label": "freetoPlayAgain",
            "offset": 0,
            "slot": "2",
            "type": "t_uint256"
          },
          {
            "astId": 4280,
            "contract": "contracts/breakInGame.sol:BreakInGame",
            "label": "playingPVP",
            "offset": 0,
            "slot": "3",
            "type": "t_bool"
          },
          {
            "astId": 4282,
            "contract": "contracts/breakInGame.sol:BreakInGame",
            "label": "canStopPlayingPVP",
            "offset": 0,
            "slot": "4",
            "type": "t_uint256"
          },
          {
            "astId": 4284,
            "contract": "contracts/breakInGame.sol:BreakInGame",
            "label": "lootingTimeout",
            "offset": 0,
            "slot": "5",
            "type": "t_uint256"
          },
          {
            "astId": 4286,
            "contract": "contracts/breakInGame.sol:BreakInGame",
            "label": "health",
            "offset": 0,
            "slot": "6",
            "type": "t_uint256"
          },
          {
            "astId": 4288,
            "contract": "contracts/breakInGame.sol:BreakInGame",
            "label": "agility",
            "offset": 0,
            "slot": "7",
            "type": "t_uint256"
          },
          {
            "astId": 4290,
            "contract": "contracts/breakInGame.sol:BreakInGame",
            "label": "strength",
            "offset": 0,
            "slot": "8",
            "type": "t_uint256"
          },
          {
            "astId": 4292,
            "contract": "contracts/breakInGame.sol:BreakInGame",
            "label": "sneak",
            "offset": 0,
            "slot": "9",
            "type": "t_uint256"
          },
          {
            "astId": 4294,
            "contract": "contracts/breakInGame.sol:BreakInGame",
            "label": "charm",
            "offset": 0,
            "slot": "10",
            "type": "t_uint256"
          }
        ],
        "numberOfBytes": "352"
      },
      "t_struct(gameModes)4363_storage": {
        "encoding": "inplace",
        "label": "struct BreakInGame.gameModes",
        "members": [
          {
            "astId": 4362,
            "contract": "contracts/breakInGame.sol:BreakInGame",
            "label": "gameMode",
            "offset": 0,
            "slot": "0",
            "type": "t_uint256"
          }
        ],
        "numberOfBytes": "32"
      },
      "t_struct(gamePlay)4314_storage": {
        "encoding": "inplace",
        "label": "struct BreakInGame.gamePlay",
        "members": [
          {
            "astId": 4297,
            "contract": "contracts/breakInGame.sol:BreakInGame",
            "label": "player",
            "offset": 0,
            "slot": "0",
            "type": "t_address"
          },
          {
            "astId": 4299,
            "contract": "contracts/breakInGame.sol:BreakInGame",
            "label": "scenario",
            "offset": 0,
            "slot": "1",
            "type": "t_uint256"
          },
          {
            "astId": 4301,
            "contract": "contracts/breakInGame.sol:BreakInGame",
            "label": "breakInStyle",
            "offset": 0,
            "slot": "2",
            "type": "t_uint256"
          },
          {
            "astId": 4303,
            "contract": "contracts/breakInGame.sol:BreakInGame",
            "label": "difficultyLevel",
            "offset": 0,
            "slot": "3",
            "type": "t_uint256"
          },
          {
            "astId": 4305,
            "contract": "contracts/breakInGame.sol:BreakInGame",
            "label": "health",
            "offset": 0,
            "slot": "4",
            "type": "t_uint256"
          },
          {
            "astId": 4307,
            "contract": "contracts/breakInGame.sol:BreakInGame",
            "label": "agility",
            "offset": 0,
            "slot": "5",
            "type": "t_uint256"
          },
          {
            "astId": 4309,
            "contract": "contracts/breakInGame.sol:BreakInGame",
            "label": "strength",
            "offset": 0,
            "slot": "6",
            "type": "t_uint256"
          },
          {
            "astId": 4311,
            "contract": "contracts/breakInGame.sol:BreakInGame",
            "label": "sneak",
            "offset": 0,
            "slot": "7",
            "type": "t_uint256"
          },
          {
            "astId": 4313,
            "contract": "contracts/breakInGame.sol:BreakInGame",
            "label": "charm",
            "offset": 0,
            "slot": "8",
            "type": "t_uint256"
          }
        ],
        "numberOfBytes": "288"
      },
      "t_struct(jailBreak)4331_storage": {
        "encoding": "inplace",
        "label": "struct BreakInGame.jailBreak",
        "members": [
          {
            "astId": 4316,
            "contract": "contracts/breakInGame.sol:BreakInGame",
            "label": "player",
            "offset": 0,
            "slot": "0",
            "type": "t_address"
          },
          {
            "astId": 4318,
            "contract": "contracts/breakInGame.sol:BreakInGame",
            "label": "breakInStyle",
            "offset": 0,
            "slot": "1",
            "type": "t_uint256"
          },
          {
            "astId": 4320,
            "contract": "contracts/breakInGame.sol:BreakInGame",
            "label": "health",
            "offset": 0,
            "slot": "2",
            "type": "t_uint256"
          },
          {
            "astId": 4322,
            "contract": "contracts/breakInGame.sol:BreakInGame",
            "label": "agility",
            "offset": 0,
            "slot": "3",
            "type": "t_uint256"
          },
          {
            "astId": 4324,
            "contract": "contracts/breakInGame.sol:BreakInGame",
            "label": "strength",
            "offset": 0,
            "slot": "4",
            "type": "t_uint256"
          },
          {
            "astId": 4326,
            "contract": "contracts/breakInGame.sol:BreakInGame",
            "label": "sneak",
            "offset": 0,
            "slot": "5",
            "type": "t_uint256"
          },
          {
            "astId": 4328,
            "contract": "contracts/breakInGame.sol:BreakInGame",
            "label": "charm",
            "offset": 0,
            "slot": "6",
            "type": "t_uint256"
          },
          {
            "astId": 4330,
            "contract": "contracts/breakInGame.sol:BreakInGame",
            "label": "targetPlayer",
            "offset": 0,
            "slot": "7",
            "type": "t_address"
          }
        ],
        "numberOfBytes": "256"
      },
      "t_struct(scenarios)4255_storage": {
        "encoding": "inplace",
        "label": "struct BreakInGame.scenarios",
        "members": [
          {
            "astId": 4250,
            "contract": "contracts/breakInGame.sol:BreakInGame",
            "label": "name",
            "offset": 0,
            "slot": "0",
            "type": "t_string_storage"
          },
          {
            "astId": 4252,
            "contract": "contracts/breakInGame.sol:BreakInGame",
            "label": "riskBaseDifficulty",
            "offset": 0,
            "slot": "1",
            "type": "t_uint256"
          },
          {
            "astId": 4254,
            "contract": "contracts/breakInGame.sol:BreakInGame",
            "label": "payoutAmountBase",
            "offset": 0,
            "slot": "2",
            "type": "t_uint256"
          }
        ],
        "numberOfBytes": "96"
      },
      "t_uint256": {
        "encoding": "inplace",
        "label": "uint256",
        "numberOfBytes": "32"
      }
    }
  }
}